:020000040000FA
:100000000C945D000C9485000C9485000C94850084
:100010000C9485000C9485000C9485000C9485004C
:100020000C9485000C9485000C9485000C9485003C
:100030000C9485000C9485000C9485000C9485002C
:100040000C94EC020C9485000C9485000C948500B3
:100050000C9485000C9485000C9485000C9485000C
:100060000C9485000C94850000000008000201003B
:100070000003040700000000000000000000000072
:10008000250028002B0000000000240027002A0083
:10009000040404040404040402020202020203032E
:1000A0000303030301020408102040800102040836
:1000B0001020010204081020EB0311241FBECFEF13
:1000C000D8E0DEBFCDBF11E0A0E0B1E0E2E2F8E0B1
:1000D00002C005900D92A234B107D9F721E0A2E445
:1000E000B1E001C01D92A536B207E1F710E0CDE501
:1000F000D0E004C02197FE010E940904CC35D1074D
:10010000C9F70E9436030C940F040C94000090E091
:10011000FC01EC55FF4F249180579F4FFC018491C7
:10012000882399F090E0880F991FFC01EA57FF4F50
:10013000A591B491FC01E458FF4F859194918FB73C
:10014000F894EC91E22BEC938FBF0895AF92BF929D
:10015000CF92DF92EF92FF920F931F93CF93DF9393
:100160006C017B018B01040F151FEB015E01AE18C2
:10017000BF08C017D10759F06991D601ED91FC91E4
:100180000190F081E02DC6010995892B79F7C50111
:10019000DF91CF911F910F91FF90EF90DF90CF9063
:1001A000BF90AF90089590E0FC01E859FF4F249173
:1001B000FC01EC55FF4F3491FC01E057FF4FE491F7
:1001C000EE23C9F0222339F0233001F1A8F42130C5
:1001D00019F1223029F1F0E0EE0FFF1FE458FF4F34
:1001E000A591B4918FB7F894EC91611126C0309528
:1001F0003E233C938FBF08952730A9F02830C9F0E3
:10020000243049F7809180008F7D03C08091800069
:100210008F7780938000DFCF84B58F7784BDDBCF6D
:1002200084B58F7DFBCF8091B0008F778093B00035
:10023000D2CF8091B0008F7DF9CF3E2BDACF3FB780
:10024000F8948091470190914801A0914901B091A3
:100250004A0126B5A89B05C02F3F19F00196A11DA4
:10026000B11D3FBFBA2FA92F982F8827BC01CD0100
:10027000620F711D811D911D42E0660F771F881F5F
:10028000991F4A95D1F708958F929F92AF92BF928E
:10029000CF92DF92EF92FF920E941F014B015C010F
:1002A00084E6C82ED12CE12CF12C0E941F01681984
:1002B00079098A099B09683E734081059105A8F375
:1002C00021E0C21AD108E108F10888EE880E83E027
:1002D000981EA11CB11CC114D104E104F10429F73A
:1002E000FF90EF90DF90CF90BF90AF909F908F9056
:1002F0000895089590E080E00895CF93DF93EC0196
:1003000060E08E810E94D30061E08E810E94D30064
:1003100060E08E810E94D3008BE891E00197F1F7B5
:10032000DF91CF910895CF92DF92EF92FF920F93DA
:100330001F93CF93DF936C017C0187E0E80EF11CE3
:10034000D0E0C0E0062F10E0B8010C2E02C0759579
:1003500067950A94E2F76170F70181917F010E942D
:10036000D3002196C430D10579F7C601DF91CF9132
:100370001F910F91FF90EF90DF90CF900C947D0133
:10038000CF92DF92EF92FF920F931F93CF93DF9361
:10039000EC01F62E642F8C810E94D3008D818F3F5B
:1003A00019F060E00E94D3000F2D10E08F8584FFCC
:1003B00025C06E0187E0C80ED11CF12CE12CB801DC
:1003C0000E2C02C0759567950A94E2F76170F601EC
:1003D00081916F010E94D300FFEFEF1AFF0A88E0BE
:1003E000E816F10461F7CE01DF91CF911F910F91D3
:1003F000FF90EF90DF90CF900C947D01B80184E0E6
:10040000759567958A95E1F7CE010E9493016F2D4E
:10041000CE01DF91CF911F910F91FF90EF90DF9070
:10042000CF900C94930140E0682F8DE491E00C9400
:10043000C001CF93DF93823029F490915C019860E2
:1004400090935C01809360011092610180E480933D
:10045000620180E18093630180E580936401809173
:1004600051010E948700809152018F3F11F00E943C
:100470008700809153010E948700CDE4D1E09E0166
:100480002D54314080915C0184FD0AC084E090E0ED
:100490002196281739073CF48E810E948700EFCF00
:1004A00088E090E0F5CF8BE39DE00197F1F760E005
:1004B000809151010E94D30060E0809153010E941D
:1004C000D300809152018F3F19F060E00E94D30069
:1004D00080915C0184FD39C063E08DE491E00E946D
:1004E0009301CBE4D6E4CE010197F1F763E08DE40C
:1004F00091E00E9493012197F1F763E08DE491E090
:100500000E94930183E592E00197F1F762E08DE4A8
:1005100091E00E94930180915C0180620E9413022D
:1005200084E080935D018CE00E94130281E00E94D0
:1005300013028BE39FE10197F1F782E080935E0164
:1005400086E0DF91CF910C94130280620E94130227
:100550008BE496E40197F1F780915C0180620E9440
:10056000130283E592E00197F1F780915C018062CC
:100570000E941302D0CF90916001691710F06FEFC5
:10058000690FE62FF0E0E35BFE4F9489890F8068E6
:100590000C94130241E00E94C00181E090E00895B4
:1005A0000F931F93CF93DF938B0128E0829FC001AD
:1005B000112480640E941302E801085F1F4F6991B3
:1005C0008DE491E00E94CA02C017D107C1F7DF9104
:1005D000CF911F910F9108951F920F920FB60F9216
:1005E00011242F933F938F939F93AF93BF93809149
:1005F000430190914401A0914501B0914601309191
:10060000420123E0230F2D3758F50196A11DB11D9E
:10061000209342018093430190934401A0934501AC
:10062000B09346018091470190914801A091490102
:10063000B0914A010196A11DB11D8093470190938D
:100640004801A0934901B0934A01BF91AF919F9196
:100650008F913F912F910F900FBE0F901F90189583
:1006600026E8230F0296A11DB11DD2CF789484B540
:10067000826084BD84B5816084BD85B5826085BD9E
:1006800085B5816085BD80916E00816080936E002C
:10069000109281008091810082608093810080911E
:1006A00081008160809381008091800081608093CF
:1006B00080008091B10084608093B1008091B0008F
:1006C00081608093B00080917A00846080937A008A
:1006D00080917A00826080937A0080917A008160B4
:1006E00080937A0080917A00806880937A001092DB
:1006F000C10082E00E94190260E171E081E00E9485
:10070000D00268E071E082E00E94D00260E071E017
:1007100083E00E94D00200E010E060E080E00E94F0
:10072000BB024DE150E064E271E08DE491E00E9493
:10073000A60062E082E00E94BB0261E08DE491E0ED
:100740000E94CA0262E08AE00E94BB0263E08DE47C
:1007500091E00E94CA0262E084E10E94BB0262E072
:100760008DE491E00E94CA0261E080E00E94BB0239
:1007700010924C0110924B01C0914B01D0914C0151
:10078000C031D1055CF488E10E9413020E9444014B
:100790002196D0934C01C0934B01EECF10924C01A7
:1007A00010924B01C0914B01D0914C01C031D10549
:1007B0005CF48CE10E9413020E9444012196D093C4
:1007C0004C01C0934B01EECF0115110509F4A5CFE3
:1007D0000E940000A2CFEDE4F1E0138212828CE1CE
:1007E00091E09183808387E084838FEF858386E027
:1007F000868385E0878384E0808783E0818782E049
:1008000082871386148615861686178681E00C94D7
:100810001902EE0FFF1F0590F491E02D0994F89452
:10082000FFCF0E11110D15151F000E11110E1F0413
:100830001F1F001B1F1F0E04000000000000CA0243
:10084000A6007A01790140454C454354524F5F411F
:10085000524455494E4F5F50524F4752414D4143CC
:04086000494F4E00AE
:107E0000112484B714BE81FFF0D085E080938100F7
:107E100082E08093C00088E18093C10086E0809377
:107E2000C20080E18093C4008EE0C9D0259A86E02C
:107E300020E33CEF91E0309385002093840096BBD3
:107E4000B09BFECF1D9AA8958150A9F7CC24DD24C4
:107E500088248394B5E0AB2EA1E19A2EF3E0BF2EE7
:107E6000A2D0813461F49FD0082FAFD0023811F036
:107E7000013811F484E001C083E08DD089C08234E0
:107E800011F484E103C0853419F485E0A6D080C0E4
:107E9000853579F488D0E82EFF2485D0082F10E0AE
:107EA000102F00270E291F29000F111F8ED06801E7
:107EB0006FC0863521F484E090D080E0DECF843638
:107EC00009F040C070D06FD0082F6DD080E0C81688
:107ED00080E7D80618F4F601B7BEE895C0E0D1E017
:107EE00062D089930C17E1F7F0E0CF16F0E7DF06D8
:107EF00018F0F601B7BEE89568D007B600FCFDCFD4
:107F0000A601A0E0B1E02C9130E011968C91119780
:107F100090E0982F8827822B932B1296FA010C0160
:107F200087BEE89511244E5F5F4FF1E0A038BF0790
:107F300051F7F601A7BEE89507B600FCFDCF97BE46
:107F4000E89526C08437B1F42ED02DD0F82E2BD052
:107F50003CD0F601EF2C8F010F5F1F4F84911BD097
:107F6000EA94F801C1F70894C11CD11CFA94CF0C13
:107F7000D11C0EC0853739F428D08EE10CD085E9AC
:107F80000AD08FE07ACF813511F488E018D01DD067
:107F900080E101D065CF982F8091C00085FFFCCF94
:107FA0009093C60008958091C00087FFFCCF809118
:107FB000C00084FD01C0A8958091C6000895E0E648
:107FC000F0E098E1908380830895EDDF803219F02E
:107FD00088E0F5DFFFCF84E1DECF1F93182FE3DFCA
:107FE0001150E9F7F2DF1F91089580E0E8DFEE27F6
:047FF000FF270994CA
:027FFE00040479
:00000001FF
